{
  "_format": "hh-sol-artifact-1",
  "contractName": "FanRegistry",
  "sourceName": "src/FanRegistry.sol",
  "abi": [
    {
      "inputs": [],
      "stateMutability": "nonpayable",
      "type": "constructor"
    },
    {
      "inputs": [],
      "name": "AlreadyCheckedIn",
      "type": "error"
    },
    {
      "inputs": [],
      "name": "AlreadyRegistered",
      "type": "error"
    },
    {
      "inputs": [],
      "name": "NotRegistered",
      "type": "error"
    },
    {
      "anonymous": false,
      "inputs": [
        {
          "indexed": true,
          "internalType": "address",
          "name": "fan",
          "type": "address"
        },
        {
          "indexed": false,
          "internalType": "uint32",
          "name": "fixtureId",
          "type": "uint32"
        },
        {
          "indexed": false,
          "internalType": "uint32",
          "name": "pointsEarned",
          "type": "uint32"
        },
        {
          "indexed": false,
          "internalType": "uint16",
          "name": "newStreak",
          "type": "uint16"
        }
      ],
      "name": "CheckedIn",
      "type": "event"
    },
    {
      "anonymous": false,
      "inputs": [
        {
          "indexed": true,
          "internalType": "address",
          "name": "fan",
          "type": "address"
        },
        {
          "indexed": false,
          "internalType": "string",
          "name": "countryCode",
          "type": "string"
        }
      ],
      "name": "FanRegistered",
      "type": "event"
    },
    {
      "anonymous": false,
      "inputs": [
        {
          "indexed": true,
          "internalType": "address",
          "name": "fan",
          "type": "address"
        },
        {
          "indexed": false,
          "internalType": "uint32",
          "name": "points",
          "type": "uint32"
        },
        {
          "indexed": false,
          "internalType": "string",
          "name": "reason",
          "type": "string"
        }
      ],
      "name": "PointsAwarded",
      "type": "event"
    },
    {
      "inputs": [],
      "name": "CHECKIN_POINTS",
      "outputs": [
        {
          "internalType": "uint32",
          "name": "",
          "type": "uint32"
        }
      ],
      "stateMutability": "view",
      "type": "function"
    },
    {
      "inputs": [
        {
          "internalType": "address",
          "name": "fan",
          "type": "address"
        },
        {
          "internalType": "uint32",
          "name": "points",
          "type": "uint32"
        },
        {
          "internalType": "string",
          "name": "reason",
          "type": "string"
        }
      ],
      "name": "awardPoints",
      "outputs": [],
      "stateMutability": "nonpayable",
      "type": "function"
    },
    {
      "inputs": [
        {
          "internalType": "uint32",
          "name": "fixtureId",
          "type": "uint32"
        }
      ],
      "name": "checkIn",
      "outputs": [],
      "stateMutability": "nonpayable",
      "type": "function"
    },
    {
      "inputs": [
        {
          "internalType": "string",
          "name": "",
          "type": "string"
        }
      ],
      "name": "countryFanCount",
      "outputs": [
        {
          "internalType": "uint256",
          "name": "",
          "type": "uint256"
        }
      ],
      "stateMutability": "view",
      "type": "function"
    },
    {
      "inputs": [
        {
          "internalType": "string",
          "name": "",
          "type": "string"
        }
      ],
      "name": "countryPoints",
      "outputs": [
        {
          "internalType": "uint256",
          "name": "",
          "type": "uint256"
        }
      ],
      "stateMutability": "view",
      "type": "function"
    },
    {
      "inputs": [
        {
          "internalType": "address",
          "name": "fan",
          "type": "address"
        }
      ],
      "name": "getProfile",
      "outputs": [
        {
          "components": [
            {
              "internalType": "string",
              "name": "countryCode",
              "type": "string"
            },
            {
              "internalType": "uint32",
              "name": "totalPoints",
              "type": "uint32"
            },
            {
              "internalType": "uint16",
              "name": "checkInStreak",
              "type": "uint16"
            },
            {
              "internalType": "uint16",
              "name": "longestStreak",
              "type": "uint16"
            },
            {
              "internalType": "uint32",
              "name": "lastFixtureId",
              "type": "uint32"
            },
            {
              "internalType": "bool",
              "name": "registered",
              "type": "bool"
            }
          ],
          "internalType": "struct FanRegistry.FanProfile",
          "name": "",
          "type": "tuple"
        }
      ],
      "stateMutability": "view",
      "type": "function"
    },
    {
      "inputs": [
        {
          "internalType": "address",
          "name": "",
          "type": "address"
        },
        {
          "internalType": "uint32",
          "name": "",
          "type": "uint32"
        }
      ],
      "name": "hasCheckedIn",
      "outputs": [
        {
          "internalType": "bool",
          "name": "",
          "type": "bool"
        }
      ],
      "stateMutability": "view",
      "type": "function"
    },
    {
      "inputs": [
        {
          "internalType": "address",
          "name": "fan",
          "type": "address"
        }
      ],
      "name": "isRegistered",
      "outputs": [
        {
          "internalType": "bool",
          "name": "",
          "type": "bool"
        }
      ],
      "stateMutability": "view",
      "type": "function"
    },
    {
      "inputs": [],
      "name": "owner",
      "outputs": [
        {
          "internalType": "address",
          "name": "",
          "type": "address"
        }
      ],
      "stateMutability": "view",
      "type": "function"
    },
    {
      "inputs": [
        {
          "internalType": "address",
          "name": "",
          "type": "address"
        }
      ],
      "name": "profiles",
      "outputs": [
        {
          "internalType": "string",
          "name": "countryCode",
          "type": "string"
        },
        {
          "internalType": "uint32",
          "name": "totalPoints",
          "type": "uint32"
        },
        {
          "internalType": "uint16",
          "name": "checkInStreak",
          "type": "uint16"
        },
        {
          "internalType": "uint16",
          "name": "longestStreak",
          "type": "uint16"
        },
        {
          "internalType": "uint32",
          "name": "lastFixtureId",
          "type": "uint32"
        },
        {
          "internalType": "bool",
          "name": "registered",
          "type": "bool"
        }
      ],
      "stateMutability": "view",
      "type": "function"
    },
    {
      "inputs": [
        {
          "internalType": "string",
          "name": "countryCode",
          "type": "string"
        }
      ],
      "name": "registerFan",
      "outputs": [],
      "stateMutability": "nonpayable",
      "type": "function"
    },
    {
      "inputs": [
        {
          "internalType": "address",
          "name": "newOwner",
          "type": "address"
        }
      ],
      "name": "transferOwnership",
      "outputs": [],
      "stateMutability": "nonpayable",
      "type": "function"
    }
  ],
  "bytecode": "0x608060405234801561001057600080fd5b50600480546001600160a01b0319163317905561113d806100326000396000f3fe608060405234801561001057600080fd5b50600436106100b45760003560e01c8063bbe1562711610071578063bbe1562714610199578063c2dfec87146101be578063c3c5a547146101fc578063d5eb892914610232578063e753435414610245578063f2fde38b1461026257600080fd5b80630f53a470146100b9578063171347d7146100e257806330ea198a1461011b57806330f4df651461013057806379e463a91461015b5780638da5cb5b1461016e575b600080fd5b6100cc6100c7366004610ae1565b610275565b6040516100d99190610b49565b60405180910390f35b61010d6100f0366004610bd2565b805160208183018101805160038252928201919093012091525481565b6040519081526020016100d9565b61012e610129366004610c97565b6103b2565b005b61010d61013e366004610bd2565b805160208183018101805160028252928201919093012091525481565b61012e610169366004610cfb565b610663565b600454610181906001600160a01b031681565b6040516001600160a01b0390911681526020016100d9565b6101ac6101a7366004610ae1565b6107b7565b6040516100d996959493929190610d5c565b6101ec6101cc366004610dab565b600160209081526000928352604080842090915290825290205460ff1681565b60405190151581526020016100d9565b6101ec61020a366004610ae1565b6001600160a01b0316600090815260208190526040902060010154600160601b900460ff1690565b61012e610240366004610dde565b610892565b61024d606481565b60405163ffffffff90911681526020016100d9565b61012e610270366004610ae1565b610a5d565b6040805160c081018252606080825260006020830181905292820183905281018290526080810182905260a08101919091526001600160a01b03821660009081526020819052604090819020815160c081019092528054829082906102d990610e20565b80601f016020809104026020016040519081016040528092919081815260200182805461030590610e20565b80156103525780601f1061032757610100808354040283529160200191610352565b820191906000526020600020905b81548152906001019060200180831161033557829003601f168201915b50505091835250506001919091015463ffffffff808216602084015261ffff600160201b830481166040850152600160301b8304166060840152600160401b820416608083015260ff600160601b90910416151560a09091015292915050565b3360009081526020819052604090206001810154600160601b900460ff166103ed5760405163aba4733960e01b815260040160405180910390fd5b33600090815260016020908152604080832063ffffffff8616845290915290205460ff161561042f57604051630c98289f60e41b815260040160405180910390fd5b33600090815260016020818152604080842063ffffffff87168552909152909120805460ff1916821790556104649083610e70565b600182015463ffffffff918216600160401b909104909116036104be57600181018054600160201b900461ffff1690600461049e83610e94565b91906101000a81548161ffff021916908361ffff160217905550506104d6565b60018101805465ffff000000001916600160201b1790555b600181015461ffff600160301b82048116600160201b90920416111561051e57600181018054600160301b61ffff600160201b8304160267ffff000000000000199091161790555b60018101805463ffffffff60401b1916600160401b63ffffffff85160217908190556064906007600160201b90910461ffff161061056857610561603282610eb5565b905061058e565b60018201546003600160201b90910461ffff161061058e5761058b601982610eb5565b90505b6001820180548291906000906105ab90849063ffffffff16610eb5565b92506101000a81548163ffffffff021916908363ffffffff1602179055508063ffffffff166002836000016040516105e39190610ed2565b908152602001604051809103902060008282546106009190610f48565b909155505060018201546040805163ffffffff808716825284166020820152600160201b90920461ffff169082015233907f6e5bc4d48d48e94022d8ff384281bea2f50ddf86171871225cb6b4390e6a58819060600160405180910390a2505050565b6004546001600160a01b031633146106ae5760405162461bcd60e51b81526020600482015260096024820152682737ba1037bbb732b960b91b60448201526064015b60405180910390fd5b6001600160a01b03841660009081526020819052604090206001810154600160601b900460ff166106f25760405163aba4733960e01b815260040160405180910390fd5b60018101805485919060009061070f90849063ffffffff16610eb5565b92506101000a81548163ffffffff021916908363ffffffff1602179055508363ffffffff166002826000016040516107479190610ed2565b908152602001604051809103902060008282546107649190610f48565b92505081905550846001600160a01b03167fa3f2182e73d5f86519958cc7868f76357dda3d1518b868875de15723677a76e18585856040516107a893929190610f8a565b60405180910390a25050505050565b6000602081905290815260409020805481906107d290610e20565b80601f01602080910402602001604051908101604052809291908181526020018280546107fe90610e20565b801561084b5780601f106108205761010080835404028352916020019161084b565b820191906000526020600020905b81548152906001019060200180831161082e57829003601f168201915b5050506001909301549192505063ffffffff8082169161ffff600160201b8204811692600160301b830490911691600160401b81049091169060ff600160601b9091041686565b33600090815260208190526040902060010154600160601b900460ff16156108cd57604051630ea075bf60e21b815260040160405180910390fd5b6040518060c0016040528083838080601f0160208091040260200160405190810160405280939291908181526020018383808284376000920182905250938552505050602080830182905260408084018390526060840183905260808401839052600160a090940193909352338252819052208151819061094e9082611002565b506020820151600190910180546040808501516060860151608087015160a0909701511515600160601b0260ff60601b1963ffffffff988916600160401b0263ffffffff60401b1961ffff948516600160301b02166bffffffffffff0000000000001994909516600160201b0265ffffffffffff199097169990981698909817949094171617939093179390931692909217909155516003906109f490849084906110c2565b9081526040519081900360200190208054906000610a11836110d2565b9190505550336001600160a01b03167fea277138d5f214f090ee4bceb0e65496cfd64ba36c38fe6a03dd4a76edef97458383604051610a519291906110eb565b60405180910390a25050565b6004546001600160a01b03163314610aa35760405162461bcd60e51b81526020600482015260096024820152682737ba1037bbb732b960b91b60448201526064016106a5565b600480546001600160a01b0319166001600160a01b0392909216919091179055565b80356001600160a01b0381168114610adc57600080fd5b919050565b600060208284031215610af357600080fd5b610afc82610ac5565b9392505050565b6000815180845260005b81811015610b2957602081850181015186830182015201610b0d565b506000602082860101526020601f19601f83011685010191505092915050565b602081526000825160c06020840152610b6560e0840182610b03565b9050602084015163ffffffff80821660408601526040860151915061ffff8083166060870152806060880151166080870152508060808701511660a0860152505060a0840151151560c08401528091505092915050565b634e487b7160e01b600052604160045260246000fd5b600060208284031215610be457600080fd5b813567ffffffffffffffff80821115610bfc57600080fd5b818401915084601f830112610c1057600080fd5b813581811115610c2257610c22610bbc565b604051601f8201601f19908116603f01168101908382118183101715610c4a57610c4a610bbc565b81604052828152876020848701011115610c6357600080fd5b826020860160208301376000928101602001929092525095945050505050565b803563ffffffff81168114610adc57600080fd5b600060208284031215610ca957600080fd5b610afc82610c83565b60008083601f840112610cc457600080fd5b50813567ffffffffffffffff811115610cdc57600080fd5b602083019150836020828501011115610cf457600080fd5b9250929050565b60008060008060608587031215610d1157600080fd5b610d1a85610ac5565b9350610d2860208601610c83565b9250604085013567ffffffffffffffff811115610d4457600080fd5b610d5087828801610cb2565b95989497509550505050565b60c081526000610d6f60c0830189610b03565b63ffffffff978816602084015261ffff968716604084015294909516606082015291909416608082015292151560a09093019290925250919050565b60008060408385031215610dbe57600080fd5b610dc783610ac5565b9150610dd560208401610c83565b90509250929050565b60008060208385031215610df157600080fd5b823567ffffffffffffffff811115610e0857600080fd5b610e1485828601610cb2565b90969095509350505050565b600181811c90821680610e3457607f821691505b602082108103610e5457634e487b7160e01b600052602260045260246000fd5b50919050565b634e487b7160e01b600052601160045260246000fd5b63ffffffff828116828216039080821115610e8d57610e8d610e5a565b5092915050565b600061ffff808316818103610eab57610eab610e5a565b6001019392505050565b63ffffffff818116838216019080821115610e8d57610e8d610e5a565b6000808354610ee081610e20565b60018281168015610ef85760018114610f0d57610f3c565b60ff1984168752821515830287019450610f3c565b8760005260208060002060005b85811015610f335781548a820152908401908201610f1a565b50505082870194505b50929695505050505050565b80820180821115610f5b57610f5b610e5a565b92915050565b81835281816020850137506000828201602090810191909152601f909101601f19169091010190565b63ffffffff84168152604060208201526000610faa604083018486610f61565b95945050505050565b601f821115610ffd57600081815260208120601f850160051c81016020861015610fda5750805b601f850160051c820191505b81811015610ff957828155600101610fe6565b5050505b505050565b815167ffffffffffffffff81111561101c5761101c610bbc565b6110308161102a8454610e20565b84610fb3565b602080601f831160018114611065576000841561104d5750858301515b600019600386901b1c1916600185901b178555610ff9565b600085815260208120601f198616915b8281101561109457888601518255948401946001909101908401611075565b50858210156110b25787850151600019600388901b60f8161c191681555b5050505050600190811b01905550565b8183823760009101908152919050565b6000600182016110e4576110e4610e5a565b5060010190565b6020815260006110ff602083018486610f61565b94935050505056fea26469706673582212202b11215c962ef4241c4686b284522fd7e65fd0f73c9de8e940207d24808b4ce864736f6c63430008140033",
  "linkReferences": {},
  "deployedLinkReferences": {}
}