{"src/FanRegistry.sol":{"FanRegistry":{"abi":[{"inputs":[],"stateMutability":"nonpayable","type":"constructor"},{"inputs":[],"name":"AlreadyCheckedIn","type":"error"},{"inputs":[],"name":"AlreadyRegistered","type":"error"},{"inputs":[],"name":"NotRegistered","type":"error"},{"anonymous":false,"inputs":[{"indexed":true,"internalType":"address","name":"fan","type":"address"},{"indexed":false,"internalType":"uint32","name":"fixtureId","type":"uint32"},{"indexed":false,"internalType":"uint32","name":"pointsEarned","type":"uint32"},{"indexed":false,"internalType":"uint16","name":"newStreak","type":"uint16"}],"name":"CheckedIn","type":"event"},{"anonymous":false,"inputs":[{"indexed":true,"internalType":"address","name":"fan","type":"address"},{"indexed":false,"internalType":"string","name":"countryCode","type":"string"}],"name":"FanRegistered","type":"event"},{"anonymous":false,"inputs":[{"indexed":true,"internalType":"address","name":"fan","type":"address"},{"indexed":false,"internalType":"uint32","name":"points","type":"uint32"},{"indexed":false,"internalType":"string","name":"reason","type":"string"}],"name":"PointsAwarded","type":"event"},{"inputs":[],"name":"CHECKIN_POINTS","outputs":[{"internalType":"uint32","name":"","type":"uint32"}],"stateMutability":"view","type":"function"},{"inputs":[{"internalType":"address","name":"fan","type":"address"},{"internalType":"uint32","name":"points","type":"uint32"},{"internalType":"string","name":"reason","type":"string"}],"name":"awardPoints","outputs":[],"stateMutability":"nonpayable","type":"function"},{"inputs":[{"internalType":"uint32","name":"fixtureId","type":"uint32"}],"name":"checkIn","outputs":[],"stateMutability":"nonpayable","type":"function"},{"inputs":[{"internalType":"string","name":"","type":"string"}],"name":"countryFanCount","outputs":[{"internalType":"uint256","name":"","type":"uint256"}],"stateMutability":"view","type":"function"},{"inputs":[{"internalType":"string","name":"","type":"string"}],"name":"countryPoints","outputs":[{"internalType":"uint256","name":"","type":"uint256"}],"stateMutability":"view","type":"function"},{"inputs":[{"internalType":"address","name":"fan","type":"address"}],"name":"getProfile","outputs":[{"components":[{"internalType":"string","name":"countryCode","type":"string"},{"internalType":"uint32","name":"totalPoints","type":"uint32"},{"internalType":"uint16","name":"checkInStreak","type":"uint16"},{"internalType":"uint16","name":"longestStreak","type":"uint16"},{"internalType":"uint32","name":"lastFixtureId","type":"uint32"},{"internalType":"bool","name":"registered","type":"bool"}],"internalType":"struct FanRegistry.FanProfile","name":"","type":"tuple"}],"stateMutability":"view","type":"function"},{"inputs":[{"internalType":"address","name":"","type":"address"},{"internalType":"uint32","name":"","type":"uint32"}],"name":"hasCheckedIn","outputs":[{"internalType":"bool","name":"","type":"bool"}],"stateMutability":"view","type":"function"},{"inputs":[{"internalType":"address","name":"fan","type":"address"}],"name":"isRegistered","outputs":[{"internalType":"bool","name":"","type":"bool"}],"stateMutability":"view","type":"function"},{"inputs":[],"name":"owner","outputs":[{"internalType":"address","name":"","type":"address"}],"stateMutability":"view","type":"function"},{"inputs":[{"internalType":"address","name":"","type":"address"}],"name":"profiles","outputs":[{"internalType":"string","name":"countryCode","type":"string"},{"internalType":"uint32","name":"totalPoints","type":"uint32"},{"internalType":"uint16","name":"checkInStreak","type":"uint16"},{"internalType":"uint16","name":"longestStreak","type":"uint16"},{"internalType":"uint32","name":"lastFixtureId","type":"uint32"},{"internalType":"bool","name":"registered","type":"bool"}],"stateMutability":"view","type":"function"},{"inputs":[{"internalType":"string","name":"countryCode","type":"string"}],"name":"registerFan","outputs":[],"stateMutability":"nonpayable","type":"function"},{"inputs":[{"internalType":"address","name":"newOwner","type":"address"}],"name":"transferOwnership","outputs":[],"stateMutability":"nonpayable","type":"function"}],"evm":{"bytecode":{"linkReferences":{},"object":"608060405234801561001057600080fd5b50600480546001600160a01b0319163317905561113d806100326000396000f3fe608060405234801561001057600080fd5b50600436106100b45760003560e01c8063bbe1562711610071578063bbe1562714610199578063c2dfec87146101be578063c3c5a547146101fc578063d5eb892914610232578063e753435414610245578063f2fde38b1461026257600080fd5b80630f53a470146100b9578063171347d7146100e257806330ea198a1461011b57806330f4df651461013057806379e463a91461015b5780638da5cb5b1461016e575b600080fd5b6100cc6100c7366004610ae1565b610275565b6040516100d99190610b49565b60405180910390f35b61010d6100f0366004610bd2565b805160208183018101805160038252928201919093012091525481565b6040519081526020016100d9565b61012e610129366004610c97565b6103b2565b005b61010d61013e366004610bd2565b805160208183018101805160028252928201919093012091525481565b61012e610169366004610cfb565b610663565b600454610181906001600160a01b031681565b6040516001600160a01b0390911681526020016100d9565b6101ac6101a7366004610ae1565b6107b7565b6040516100d996959493929190610d5c565b6101ec6101cc366004610dab565b600160209081526000928352604080842090915290825290205460ff1681565b60405190151581526020016100d9565b6101ec61020a366004610ae1565b6001600160a01b0316600090815260208190526040902060010154600160601b900460ff1690565b61012e610240366004610dde565b610892565b61024d606481565b60405163ffffffff90911681526020016100d9565b61012e610270366004610ae1565b610a5d565b6040805160c081018252606080825260006020830181905292820183905281018290526080810182905260a08101919091526001600160a01b03821660009081526020819052604090819020815160c081019092528054829082906102d990610e20565b80601f016020809104026020016040519081016040528092919081815260200182805461030590610e20565b80156103525780601f1061032757610100808354040283529160200191610352565b820191906000526020600020905b81548152906001019060200180831161033557829003601f168201915b50505091835250506001919091015463ffffffff808216602084015261ffff600160201b830481166040850152600160301b8304166060840152600160401b820416608083015260ff600160601b90910416151560a09091015292915050565b3360009081526020819052604090206001810154600160601b900460ff166103ed5760405163aba4733960e01b815260040160405180910390fd5b33600090815260016020908152604080832063ffffffff8616845290915290205460ff161561042f57604051630c98289f60e41b815260040160405180910390fd5b33600090815260016020818152604080842063ffffffff87168552909152909120805460ff1916821790556104649083610e70565b600182015463ffffffff918216600160401b909104909116036104be57600181018054600160201b900461ffff1690600461049e83610e94565b91906101000a81548161ffff021916908361ffff160217905550506104d6565b60018101805465ffff000000001916600160201b1790555b600181015461ffff600160301b82048116600160201b90920416111561051e57600181018054600160301b61ffff600160201b8304160267ffff000000000000199091161790555b60018101805463ffffffff60401b1916600160401b63ffffffff85160217908190556064906007600160201b90910461ffff161061056857610561603282610eb5565b905061058e565b60018201546003600160201b90910461ffff161061058e5761058b601982610eb5565b90505b6001820180548291906000906105ab90849063ffffffff16610eb5565b92506101000a81548163ffffffff021916908363ffffffff1602179055508063ffffffff166002836000016040516105e39190610ed2565b908152602001604051809103902060008282546106009190610f48565b909155505060018201546040805163ffffffff808716825284166020820152600160201b90920461ffff169082015233907f6e5bc4d48d48e94022d8ff384281bea2f50ddf86171871225cb6b4390e6a58819060600160405180910390a2505050565b6004546001600160a01b031633146106ae5760405162461bcd60e51b81526020600482015260096024820152682737ba1037bbb732b960b91b60448201526064015b60405180910390fd5b6001600160a01b03841660009081526020819052604090206001810154600160601b900460ff166106f25760405163aba4733960e01b815260040160405180910390fd5b60018101805485919060009061070f90849063ffffffff16610eb5565b92506101000a81548163ffffffff021916908363ffffffff1602179055508363ffffffff166002826000016040516107479190610ed2565b908152602001604051809103902060008282546107649190610f48565b92505081905550846001600160a01b03167fa3f2182e73d5f86519958cc7868f76357dda3d1518b868875de15723677a76e18585856040516107a893929190610f8a565b60405180910390a25050505050565b6000602081905290815260409020805481906107d290610e20565b80601f01602080910402602001604051908101604052809291908181526020018280546107fe90610e20565b801561084b5780601f106108205761010080835404028352916020019161084b565b820191906000526020600020905b81548152906001019060200180831161082e57829003601f168201915b5050506001909301549192505063ffffffff8082169161ffff600160201b8204811692600160301b830490911691600160401b81049091169060ff600160601b9091041686565b33600090815260208190526040902060010154600160601b900460ff16156108cd57604051630ea075bf60e21b815260040160405180910390fd5b6040518060c0016040528083838080601f0160208091040260200160405190810160405280939291908181526020018383808284376000920182905250938552505050602080830182905260408084018390526060840183905260808401839052600160a090940193909352338252819052208151819061094e9082611002565b506020820151600190910180546040808501516060860151608087015160a0909701511515600160601b0260ff60601b1963ffffffff988916600160401b0263ffffffff60401b1961ffff948516600160301b02166bffffffffffff0000000000001994909516600160201b0265ffffffffffff199097169990981698909817949094171617939093179390931692909217909155516003906109f490849084906110c2565b9081526040519081900360200190208054906000610a11836110d2565b9190505550336001600160a01b03167fea277138d5f214f090ee4bceb0e65496cfd64ba36c38fe6a03dd4a76edef97458383604051610a519291906110eb565b60405180910390a25050565b6004546001600160a01b03163314610aa35760405162461bcd60e51b81526020600482015260096024820152682737ba1037bbb732b960b91b60448201526064016106a5565b600480546001600160a01b0319166001600160a01b0392909216919091179055565b80356001600160a01b0381168114610adc57600080fd5b919050565b600060208284031215610af357600080fd5b610afc82610ac5565b9392505050565b6000815180845260005b81811015610b2957602081850181015186830182015201610b0d565b506000602082860101526020601f19601f83011685010191505092915050565b602081526000825160c06020840152610b6560e0840182610b03565b9050602084015163ffffffff80821660408601526040860151915061ffff8083166060870152806060880151166080870152508060808701511660a0860152505060a0840151151560c08401528091505092915050565b634e487b7160e01b600052604160045260246000fd5b600060208284031215610be457600080fd5b813567ffffffffffffffff80821115610bfc57600080fd5b818401915084601f830112610c1057600080fd5b813581811115610c2257610c22610bbc565b604051601f8201601f19908116603f01168101908382118183101715610c4a57610c4a610bbc565b81604052828152876020848701011115610c6357600080fd5b826020860160208301376000928101602001929092525095945050505050565b803563ffffffff81168114610adc57600080fd5b600060208284031215610ca957600080fd5b610afc82610c83565b60008083601f840112610cc457600080fd5b50813567ffffffffffffffff811115610cdc57600080fd5b602083019150836020828501011115610cf457600080fd5b9250929050565b60008060008060608587031215610d1157600080fd5b610d1a85610ac5565b9350610d2860208601610c83565b9250604085013567ffffffffffffffff811115610d4457600080fd5b610d5087828801610cb2565b95989497509550505050565b60c081526000610d6f60c0830189610b03565b63ffffffff978816602084015261ffff968716604084015294909516606082015291909416608082015292151560a09093019290925250919050565b60008060408385031215610dbe57600080fd5b610dc783610ac5565b9150610dd560208401610c83565b90509250929050565b60008060208385031215610df157600080fd5b823567ffffffffffffffff811115610e0857600080fd5b610e1485828601610cb2565b90969095509350505050565b600181811c90821680610e3457607f821691505b602082108103610e5457634e487b7160e01b600052602260045260246000fd5b50919050565b634e487b7160e01b600052601160045260246000fd5b63ffffffff828116828216039080821115610e8d57610e8d610e5a565b5092915050565b600061ffff808316818103610eab57610eab610e5a565b6001019392505050565b63ffffffff818116838216019080821115610e8d57610e8d610e5a565b6000808354610ee081610e20565b60018281168015610ef85760018114610f0d57610f3c565b60ff1984168752821515830287019450610f3c565b8760005260208060002060005b85811015610f335781548a820152908401908201610f1a565b50505082870194505b50929695505050505050565b80820180821115610f5b57610f5b610e5a565b92915050565b81835281816020850137506000828201602090810191909152601f909101601f19169091010190565b63ffffffff84168152604060208201526000610faa604083018486610f61565b95945050505050565b601f821115610ffd57600081815260208120601f850160051c81016020861015610fda5750805b601f850160051c820191505b81811015610ff957828155600101610fe6565b5050505b505050565b815167ffffffffffffffff81111561101c5761101c610bbc565b6110308161102a8454610e20565b84610fb3565b602080601f831160018114611065576000841561104d5750858301515b600019600386901b1c1916600185901b178555610ff9565b600085815260208120601f198616915b8281101561109457888601518255948401946001909101908401611075565b50858210156110b25787850151600019600388901b60f8161c191681555b5050505050600190811b01905550565b8183823760009101908152919050565b6000600182016110e4576110e4610e5a565b5060010190565b6020815260006110ff602083018486610f61565b94935050505056fea26469706673582212202b11215c962ef4241c4686b284522fd7e65fd0f73c9de8e940207d24808b4ce864736f6c63430008140033","opcodes":"PUSH1 0x80 PUSH1 0x40 MSTORE CALLVALUE DUP1 ISZERO PUSH2 0x10 JUMPI PUSH1 0x0 DUP1 REVERT JUMPDEST POP PUSH1 0x4 DUP1 SLOAD PUSH1 0x1 PUSH1 0x1 PUSH1 0xA0 SHL SUB NOT AND CALLER OR SWAP1 SSTORE PUSH2 0x113D DUP1 PUSH2 0x32 PUSH1 0x0 CODECOPY PUSH1 0x0 RETURN INVALID PUSH1 0x80 PUSH1 0x40 MSTORE CALLVALUE DUP1 ISZERO PUSH2 0x10 JUMPI PUSH1 0x0 DUP1 REVERT JUMPDEST POP PUSH1 0x4 CALLDATASIZE LT PUSH2 0xB4 JUMPI PUSH1 0x0 CALLDATALOAD PUSH1 0xE0 SHR DUP1 PUSH4 0xBBE15627 GT PUSH2 0x71 JUMPI DUP1 PUSH4 0xBBE15627 EQ PUSH2 0x199 JUMPI DUP1 PUSH4 0xC2DFEC87 EQ PUSH2 0x1BE JUMPI DUP1 PUSH4 0xC3C5A547 EQ PUSH2 0x1FC JUMPI DUP1 PUSH4 0xD5EB8929 EQ PUSH2 0x232 JUMPI DUP1 PUSH4 0xE7534354 EQ PUSH2 0x245 JUMPI DUP1 PUSH4 0xF2FDE38B EQ PUSH2 0x262 JUMPI PUSH1 0x0 DUP1 REVERT JUMPDEST DUP1 PUSH4 0xF53A470 EQ PUSH2 0xB9 JUMPI DUP1 PUSH4 0x171347D7 EQ PUSH2 0xE2 JUMPI DUP1 PUSH4 0x30EA198A EQ PUSH2 0x11B JUMPI DUP1 PUSH4 0x30F4DF65 EQ PUSH2 0x130 JUMPI DUP1 PUSH4 0x79E463A9 EQ PUSH2 0x15B JUMPI DUP1 PUSH4 0x8DA5CB5B EQ PUSH2 0x16E JUMPI JUMPDEST PUSH1 0x0 DUP1 REVERT JUMPDEST PUSH2 0xCC PUSH2 0xC7 CALLDATASIZE PUSH1 0x4 PUSH2 0xAE1 JUMP JUMPDEST PUSH2 0x275 JUMP JUMPDEST PUSH1 0x40 MLOAD PUSH2 0xD9 SWAP2 SWAP1 PUSH2 0xB49 JUMP JUMPDEST PUSH1 0x40 MLOAD DUP1 SWAP2 SUB SWAP1 RETURN JUMPDEST PUSH2 0x10D PUSH2 0xF0 CALLDATASIZE PUSH1 0x4 PUSH2 0xBD2 JUMP JUMPDEST DUP1 MLOAD PUSH1 0x20 DUP2 DUP4 ADD DUP2 ADD DUP1 MLOAD PUSH1 0x3 DUP3 MSTORE SWAP3 DUP3 ADD SWAP2 SWAP1 SWAP4 ADD KECCAK256 SWAP2 MSTORE SLOAD DUP2 JUMP JUMPDEST PUSH1 0x40 MLOAD SWAP1 DUP2 MSTORE PUSH1 0x20 ADD PUSH2 0xD9 JUMP JUMPDEST PUSH2 0x12E PUSH2 0x129 CALLDATASIZE PUSH1 0x4 PUSH2 0xC97 JUMP JUMPDEST PUSH2 0x3B2 JUMP JUMPDEST STOP JUMPDEST PUSH2 0x10D PUSH2 0x13E CALLDATASIZE PUSH1 0x4 PUSH2 0xBD2 JUMP JUMPDEST DUP1 MLOAD PUSH1 0x20 DUP2 DUP4 ADD DUP2 ADD DUP1 MLOAD PUSH1 0x2 DUP3 MSTORE SWAP3 DUP3 ADD SWAP2 SWAP1 SWAP4 ADD KECCAK256 SWAP2 MSTORE SLOAD DUP2 JUMP JUMPDEST PUSH2 0x12E PUSH2 0x169 CALLDATASIZE PUSH1 0x4 PUSH2 0xCFB JUMP JUMPDEST PUSH2 0x663 JUMP JUMPDEST PUSH1 0x4 SLOAD PUSH2 0x181 SWAP1 PUSH1 0x1 PUSH1 0x1 PUSH1 0xA0 SHL SUB AND DUP2 JUMP JUMPDEST PUSH1 0x40 MLOAD PUSH1 0x1 PUSH1 0x1 PUSH1 0xA0 SHL SUB SWAP1 SWAP2 AND DUP2 MSTORE PUSH1 0x20 ADD PUSH2 0xD9 JUMP JUMPDEST PUSH2 0x1AC PUSH2 0x1A7 CALLDATASIZE PUSH1 0x4 PUSH2 0xAE1 JUMP JUMPDEST PUSH2 0x7B7 JUMP JUMPDEST PUSH1 0x40 MLOAD PUSH2 0xD9 SWAP7 SWAP6 SWAP5 SWAP4 SWAP3 SWAP2 SWAP1 PUSH2 0xD5C JUMP JUMPDEST PUSH2 0x1EC PUSH2 0x1CC CALLDATASIZE PUSH1 0x4 PUSH2 0xDAB JUMP JUMPDEST PUSH1 0x1 PUSH1 0x20 SWAP1 DUP2 MSTORE PUSH1 0x0 SWAP3 DUP4 MSTORE PUSH1 0x40 DUP1 DUP5 KECCAK256 SWAP1 SWAP2 MSTORE SWAP1 DUP3 MSTORE SWAP1 KECCAK256 SLOAD PUSH1 0xFF AND DUP2 JUMP JUMPDEST PUSH1 0x40 MLOAD SWAP1 ISZERO ISZERO DUP2 MSTORE PUSH1 0x20 ADD PUSH2 0xD9 JUMP JUMPDEST PUSH2 0x1EC PUSH2 0x20A CALLDATASIZE PUSH1 0x4 PUSH2 0xAE1 JUMP JUMPDEST PUSH1 0x1 PUSH1 0x1 PUSH1 0xA0 SHL SUB AND PUSH1 0x0 SWAP1 DUP2 MSTORE PUSH1 0x20 DUP2 SWAP1 MSTORE PUSH1 0x40 SWAP1 KECCAK256 PUSH1 0x1 ADD SLOAD PUSH1 0x1 PUSH1 0x60 SHL SWAP1 DIV PUSH1 0xFF AND SWAP1 JUMP JUMPDEST PUSH2 0x12E PUSH2 0x240 CALLDATASIZE PUSH1 0x4 PUSH2 0xDDE JUMP JUMPDEST PUSH2 0x892 JUMP JUMPDEST PUSH2 0x24D PUSH1 0x64 DUP2 JUMP JUMPDEST PUSH1 0x40 MLOAD PUSH4 0xFFFFFFFF SWAP1 SWAP2 AND DUP2 MSTORE PUSH1 0x20 ADD PUSH2 0xD9 JUMP JUMPDEST PUSH2 0x12E PUSH2 0x270 CALLDATASIZE PUSH1 0x4 PUSH2 0xAE1 JUMP JUMPDEST PUSH2 0xA5D JUMP JUMPDEST PUSH1 0x40 DUP1 MLOAD PUSH1 0xC0 DUP2 ADD DUP3 MSTORE PUSH1 0x60 DUP1 DUP3 MSTORE PUSH1 0x0 PUSH1 0x20 DUP4 ADD DUP2 SWAP1 MSTORE SWAP3 DUP3 ADD DUP4 SWAP1 MSTORE DUP2 ADD DUP3 SWAP1 MSTORE PUSH1 0x80 DUP2 ADD DUP3 SWAP1 MSTORE PUSH1 0xA0 DUP2 ADD SWAP2 SWAP1 SWAP2 MSTORE PUSH1 0x1 PUSH1 0x1 PUSH1 0xA0 SHL SUB DUP3 AND PUSH1 0x0 SWAP1 DUP2 MSTORE PUSH1 0x20 DUP2 SWAP1 MSTORE PUSH1 0x40 SWAP1 DUP2 SWAP1 KECCAK256 DUP2 MLOAD PUSH1 0xC0 DUP2 ADD SWAP1 SWAP3 MSTORE DUP1 SLOAD DUP3 SWAP1 DUP3 SWAP1 PUSH2 0x2D9 SWAP1 PUSH2 0xE20 JUMP JUMPDEST DUP1 PUSH1 0x1F ADD PUSH1 0x20 DUP1 SWAP2 DIV MUL PUSH1 0x20 ADD PUSH1 0x40 MLOAD SWAP1 DUP2 ADD PUSH1 0x40 MSTORE DUP1 SWAP3 SWAP2 SWAP1 DUP2 DUP2 MSTORE PUSH1 0x20 ADD DUP3 DUP1 SLOAD PUSH2 0x305 SWAP1 PUSH2 0xE20 JUMP JUMPDEST DUP1 ISZERO PUSH2 0x352 JUMPI DUP1 PUSH1 0x1F LT PUSH2 0x327 JUMPI PUSH2 0x100 DUP1 DUP4 SLOAD DIV MUL DUP4 MSTORE SWAP2 PUSH1 0x20 ADD SWAP2 PUSH2 0x352 JUMP JUMPDEST DUP3 ADD SWAP2 SWAP1 PUSH1 0x0 MSTORE PUSH1 0x20 PUSH1 0x0 KECCAK256 SWAP1 JUMPDEST DUP2 SLOAD DUP2 MSTORE SWAP1 PUSH1 0x1 ADD SWAP1 PUSH1 0x20 ADD DUP1 DUP4 GT PUSH2 0x335 JUMPI DUP3 SWAP1 SUB PUSH1 0x1F AND DUP3 ADD SWAP2 JUMPDEST POP POP POP SWAP2 DUP4 MSTORE POP POP PUSH1 0x1 SWAP2 SWAP1 SWAP2 ADD SLOAD PUSH4 0xFFFFFFFF DUP1 DUP3 AND PUSH1 0x20 DUP5 ADD MSTORE PUSH2 0xFFFF PUSH1 0x1 PUSH1 0x20 SHL DUP4 DIV DUP2 AND PUSH1 0x40 DUP6 ADD MSTORE PUSH1 0x1 PUSH1 0x30 SHL DUP4 DIV AND PUSH1 0x60 DUP5 ADD MSTORE PUSH1 0x1 PUSH1 0x40 SHL DUP3 DIV AND PUSH1 0x80 DUP4 ADD MSTORE PUSH1 0xFF PUSH1 0x1 PUSH1 0x60 SHL SWAP1 SWAP2 DIV AND ISZERO ISZERO PUSH1 0xA0 SWAP1 SWAP2 ADD MSTORE SWAP3 SWAP2 POP POP JUMP JUMPDEST CALLER PUSH1 0x0 SWAP1 DUP2 MSTORE PUSH1 0x20 DUP2 SWAP1 MSTORE PUSH1 0x40 SWAP1 KECCAK256 PUSH1 0x1 DUP2 ADD SLOAD PUSH1 0x1 PUSH1 0x60 SHL SWAP1 DIV PUSH1 0xFF AND PUSH2 0x3ED JUMPI PUSH1 0x40 MLOAD PUSH4 0xABA47339 PUSH1 0xE0 SHL DUP2 MSTORE PUSH1 0x4 ADD PUSH1 0x40 MLOAD DUP1 SWAP2 SUB SWAP1 REVERT JUMPDEST CALLER PUSH1 0x0 SWAP1 DUP2 MSTORE PUSH1 0x1 PUSH1 0x20 SWAP1 DUP2 MSTORE PUSH1 0x40 DUP1 DUP4 KECCAK256 PUSH4 0xFFFFFFFF DUP7 AND DUP5 MSTORE SWAP1 SWAP2 MSTORE SWAP1 KECCAK256 SLOAD PUSH1 0xFF AND ISZERO PUSH2 0x42F JUMPI PUSH1 0x40 MLOAD PUSH4 0xC98289F PUSH1 0xE4 SHL DUP2 MSTORE PUSH1 0x4 ADD PUSH1 0x40 MLOAD DUP1 SWAP2 SUB SWAP1 REVERT JUMPDEST CALLER PUSH1 0x0 SWAP1 DUP2 MSTORE PUSH1 0x1 PUSH1 0x20 DUP2 DUP2 MSTORE PUSH1 0x40 DUP1 DUP5 KECCAK256 PUSH4 0xFFFFFFFF DUP8 AND DUP6 MSTORE SWAP1 SWAP2 MSTORE SWAP1 SWAP2 KECCAK256 DUP1 SLOAD PUSH1 0xFF NOT AND DUP3 OR SWAP1 SSTORE PUSH2 0x464 SWAP1 DUP4 PUSH2 0xE70 JUMP JUMPDEST PUSH1 0x1 DUP3 ADD SLOAD PUSH4 0xFFFFFFFF SWAP2 DUP3 AND PUSH1 0x1 PUSH1 0x40 SHL SWAP1 SWAP2 DIV SWAP1 SWAP2 AND SUB PUSH2 0x4BE JUMPI PUSH1 0x1 DUP2 ADD DUP1 SLOAD PUSH1 0x1 PUSH1 0x20 SHL SWAP1 DIV PUSH2 0xFFFF AND SWAP1 PUSH1 0x4 PUSH2 0x49E DUP4 PUSH2 0xE94 JUMP JUMPDEST SWAP2 SWAP1 PUSH2 0x100 EXP DUP2 SLOAD DUP2 PUSH2 0xFFFF MUL NOT AND SWAP1 DUP4 PUSH2 0xFFFF AND MUL OR SWAP1 SSTORE POP POP PUSH2 0x4D6 JUMP JUMPDEST PUSH1 0x1 DUP2 ADD DUP1 SLOAD PUSH6 0xFFFF00000000 NOT AND PUSH1 0x1 PUSH1 0x20 SHL OR SWAP1 SSTORE JUMPDEST PUSH1 0x1 DUP2 ADD SLOAD PUSH2 0xFFFF PUSH1 0x1 PUSH1 0x30 SHL DUP3 DIV DUP2 AND PUSH1 0x1 PUSH1 0x20 SHL SWAP1 SWAP3 DIV AND GT ISZERO PUSH2 0x51E JUMPI PUSH1 0x1 DUP2 ADD DUP1 SLOAD PUSH1 0x1 PUSH1 0x30 SHL PUSH2 0xFFFF PUSH1 0x1 PUSH1 0x20 SHL DUP4 DIV AND MUL PUSH8 0xFFFF000000000000 NOT SWAP1 SWAP2 AND OR SWAP1 SSTORE JUMPDEST PUSH1 0x1 DUP2 ADD DUP1 SLOAD PUSH4 0xFFFFFFFF PUSH1 0x40 SHL NOT AND PUSH1 0x1 PUSH1 0x40 SHL PUSH4 0xFFFFFFFF DUP6 AND MUL OR SWAP1 DUP2 SWAP1 SSTORE PUSH1 0x64 SWAP1 PUSH1 0x7 PUSH1 0x1 PUSH1 0x20 SHL SWAP1 SWAP2 DIV PUSH2 0xFFFF AND LT PUSH2 0x568 JUMPI PUSH2 0x561 PUSH1 0x32 DUP3 PUSH2 0xEB5 JUMP JUMPDEST SWAP1 POP PUSH2 0x58E JUMP JUMPDEST PUSH1 0x1 DUP3 ADD SLOAD PUSH1 0x3 PUSH1 0x1 PUSH1 0x20 SHL SWAP1 SWAP2 DIV PUSH2 0xFFFF AND LT PUSH2 0x58E JUMPI PUSH2 0x58B PUSH1 0x19 DUP3 PUSH2 0xEB5 JUMP JUMPDEST SWAP1 POP JUMPDEST PUSH1 0x1 DUP3 ADD DUP1 SLOAD DUP3 SWAP2 SWAP1 PUSH1 0x0 SWAP1 PUSH2 0x5AB SWAP1 DUP5 SWAP1 PUSH4 0xFFFFFFFF AND PUSH2 0xEB5 JUMP JUMPDEST SWAP3 POP PUSH2 0x100 EXP DUP2 SLOAD DUP2 PUSH4 0xFFFFFFFF MUL NOT AND SWAP1 DUP4 PUSH4 0xFFFFFFFF AND MUL OR SWAP1 SSTORE POP DUP1 PUSH4 0xFFFFFFFF AND PUSH1 0x2 DUP4 PUSH1 0x0 ADD PUSH1 0x40 MLOAD PUSH2 0x5E3 SWAP2 SWAP1 PUSH2 0xED2 JUMP JUMPDEST SWAP1 DUP2 MSTORE PUSH1 0x20 ADD PUSH1 0x40 MLOAD DUP1 SWAP2 SUB SWAP1 KECCAK256 PUSH1 0x0 DUP3 DUP3 SLOAD PUSH2 0x600 SWAP2 SWAP1 PUSH2 0xF48 JUMP JUMPDEST SWAP1 SWAP2 SSTORE POP POP PUSH1 0x1 DUP3 ADD SLOAD PUSH1 0x40 DUP1 MLOAD PUSH4 0xFFFFFFFF DUP1 DUP8 AND DUP3 MSTORE DUP5 AND PUSH1 0x20 DUP3 ADD MSTORE PUSH1 0x1 PUSH1 0x20 SHL SWAP1 SWAP3 DIV PUSH2 0xFFFF AND SWAP1 DUP3 ADD MSTORE CALLER SWAP1 PUSH32 0x6E5BC4D48D48E94022D8FF384281BEA2F50DDF86171871225CB6B4390E6A5881 SWAP1 PUSH1 0x60 ADD PUSH1 0x40 MLOAD DUP1 SWAP2 SUB SWAP1 LOG2 POP POP POP JUMP JUMPDEST PUSH1 0x4 SLOAD PUSH1 0x1 PUSH1 0x1 PUSH1 0xA0 SHL SUB AND CALLER EQ PUSH2 0x6AE JUMPI PUSH1 0x40 MLOAD PUSH3 0x461BCD PUSH1 0xE5 SHL DUP2 MSTORE PUSH1 0x20 PUSH1 0x4 DUP3 ADD MSTORE PUSH1 0x9 PUSH1 0x24 DUP3 ADD MSTORE PUSH9 0x2737BA1037BBB732B9 PUSH1 0xB9 SHL PUSH1 0x44 DUP3 ADD MSTORE PUSH1 0x64 ADD JUMPDEST PUSH1 0x40 MLOAD DUP1 SWAP2 SUB SWAP1 REVERT JUMPDEST PUSH1 0x1 PUSH1 0x1 PUSH1 0xA0 SHL SUB DUP5 AND PUSH1 0x0 SWAP1 DUP2 MSTORE PUSH1 0x20 DUP2 SWAP1 MSTORE PUSH1 0x40 SWAP1 KECCAK256 PUSH1 0x1 DUP2 ADD SLOAD PUSH1 0x1 PUSH1 0x60 SHL SWAP1 DIV PUSH1 0xFF AND PUSH2 0x6F2 JUMPI PUSH1 0x40 MLOAD PUSH4 0xABA47339 PUSH1 0xE0 SHL DUP2 MSTORE PUSH1 0x4 ADD PUSH1 0x40 MLOAD DUP1 SWAP2 SUB SWAP1 REVERT JUMPDEST PUSH1 0x1 DUP2 ADD DUP1 SLOAD DUP6 SWAP2 SWAP1 PUSH1 0x0 SWAP1 PUSH2 0x70F SWAP1 DUP5 SWAP1 PUSH4 0xFFFFFFFF AND PUSH2 0xEB5 JUMP JUMPDEST SWAP3 POP PUSH2 0x100 EXP DUP2 SLOAD DUP2 PUSH4 0xFFFFFFFF MUL NOT AND SWAP1 DUP4 PUSH4 0xFFFFFFFF AND MUL OR SWAP1 SSTORE POP DUP4 PUSH4 0xFFFFFFFF AND PUSH1 0x2 DUP3 PUSH1 0x0 ADD PUSH1 0x40 MLOAD PUSH2 0x747 SWAP2 SWAP1 PUSH2 0xED2 JUMP JUMPDEST SWAP1 DUP2 MSTORE PUSH1 0x20 ADD PUSH1 0x40 MLOAD DUP1 SWAP2 SUB SWAP1 KECCAK256 PUSH1 0x0 DUP3 DUP3 SLOAD PUSH2 0x764 SWAP2 SWAP1 PUSH2 0xF48 JUMP JUMPDEST SWAP3 POP POP DUP2 SWAP1 SSTORE POP DUP5 PUSH1 0x1 PUSH1 0x1 PUSH1 0xA0 SHL SUB AND PUSH32 0xA3F2182E73D5F86519958CC7868F76357DDA3D1518B868875DE15723677A76E1 DUP6 DUP6 DUP6 PUSH1 0x40 MLOAD PUSH2 0x7A8 SWAP4 SWAP3 SWAP2 SWAP1 PUSH2 0xF8A JUMP JUMPDEST PUSH1 0x40 MLOAD DUP1 SWAP2 SUB SWAP1 LOG2 POP POP POP POP POP JUMP JUMPDEST PUSH1 0x0 PUSH1 0x20 DUP2 SWAP1 MSTORE SWAP1 DUP2 MSTORE PUSH1 0x40 SWAP1 KECCAK256 DUP1 SLOAD DUP2 SWAP1 PUSH2 0x7D2 SWAP1 PUSH2 0xE20 JUMP JUMPDEST DUP1 PUSH1 0x1F ADD PUSH1 0x20 DUP1 SWAP2 DIV MUL PUSH1 0x20 ADD PUSH1 0x40 MLOAD SWAP1 DUP2 ADD PUSH1 0x40 MSTORE DUP1 SWAP3 SWAP2 SWAP1 DUP2 DUP2 MSTORE PUSH1 0x20 ADD DUP3 DUP1 SLOAD PUSH2 0x7FE SWAP1 PUSH2 0xE20 JUMP JUMPDEST DUP1 ISZERO PUSH2 0x84B JUMPI DUP1 PUSH1 0x1F LT PUSH2 0x820 JUMPI PUSH2 0x100 DUP1 DUP4 SLOAD DIV MUL DUP4 MSTORE SWAP2 PUSH1 0x20 ADD SWAP2 PUSH2 0x84B JUMP JUMPDEST DUP3 ADD SWAP2 SWAP1 PUSH1 0x0 MSTORE PUSH1 0x20 PUSH1 0x0 KECCAK256 SWAP1 JUMPDEST DUP2 SLOAD DUP2 MSTORE SWAP1 PUSH1 0x1 ADD SWAP1 PUSH1 0x20 ADD DUP1 DUP4 GT PUSH2 0x82E JUMPI DUP3 SWAP1 SUB PUSH1 0x1F AND DUP3 ADD SWAP2 JUMPDEST POP POP POP PUSH1 0x1 SWAP1 SWAP4 ADD SLOAD SWAP2 SWAP3 POP POP PUSH4 0xFFFFFFFF DUP1 DUP3 AND SWAP2 PUSH2 0xFFFF PUSH1 0x1 PUSH1 0x20 SHL DUP3 DIV DUP2 AND SWAP3 PUSH1 0x1 PUSH1 0x30 SHL DUP4 DIV SWAP1 SWAP2 AND SWAP2 PUSH1 0x1 PUSH1 0x40 SHL DUP2 DIV SWAP1 SWAP2 AND SWAP1 PUSH1 0xFF PUSH1 0x1 PUSH1 0x60 SHL SWAP1 SWAP2 DIV AND DUP7 JUMP JUMPDEST CALLER PUSH1 0x0 SWAP1 DUP2 MSTORE PUSH1 0x20 DUP2 SWAP1 MSTORE PUSH1 0x40 SWAP1 KECCAK256 PUSH1 0x1 ADD SLOAD PUSH1 0x1 PUSH1 0x60 SHL SWAP1 DIV PUSH1 0xFF AND ISZERO PUSH2 0x8CD JUMPI PUSH1 0x40 MLOAD PUSH4 0xEA075BF PUSH1 0xE2 SHL DUP2 MSTORE PUSH1 0x4 ADD PUSH1 0x40 MLOAD DUP1 SWAP2 SUB SWAP1 REVERT JUMPDEST PUSH1 0x40 MLOAD DUP1 PUSH1 0xC0 ADD PUSH1 0x40 MSTORE DUP1 DUP4 DUP4 DUP1 DUP1 PUSH1 0x1F ADD PUSH1 0x20 DUP1 SWAP2 DIV MUL PUSH1 0x20 ADD PUSH1 0x40 MLOAD SWAP1 DUP2 ADD PUSH1 0x40 MSTORE DUP1 SWAP4 SWAP3 SWAP2 SWAP1 DUP2 DUP2 MSTORE PUSH1 0x20 ADD DUP4 DUP4 DUP1 DUP3 DUP5 CALLDATACOPY PUSH1 0x0 SWAP3 ADD DUP3 SWAP1 MSTORE POP SWAP4 DUP6 MSTORE POP POP POP PUSH1 0x20 DUP1 DUP4 ADD DUP3 SWAP1 MSTORE PUSH1 0x40 DUP1 DUP5 ADD DUP4 SWAP1 MSTORE PUSH1 0x60 DUP5 ADD DUP4 SWAP1 MSTORE PUSH1 0x80 DUP5 ADD DUP4 SWAP1 MSTORE PUSH1 0x1 PUSH1 0xA0 SWAP1 SWAP5 ADD SWAP4 SWAP1 SWAP4 MSTORE CALLER DUP3 MSTORE DUP2 SWAP1 MSTORE KECCAK256 DUP2 MLOAD DUP2 SWAP1 PUSH2 0x94E SWAP1 DUP3 PUSH2 0x1002 JUMP JUMPDEST POP PUSH1 0x20 DUP3 ADD MLOAD PUSH1 0x1 SWAP1 SWAP2 ADD DUP1 SLOAD PUSH1 0x40 DUP1 DUP6 ADD MLOAD PUSH1 0x60 DUP7 ADD MLOAD PUSH1 0x80 DUP8 ADD MLOAD PUSH1 0xA0 SWAP1 SWAP8 ADD MLOAD ISZERO ISZERO PUSH1 0x1 PUSH1 0x60 SHL MUL PUSH1 0xFF PUSH1 0x60 SHL NOT PUSH4 0xFFFFFFFF SWAP9 DUP10 AND PUSH1 0x1 PUSH1 0x40 SHL MUL PUSH4 0xFFFFFFFF PUSH1 0x40 SHL NOT PUSH2 0xFFFF SWAP5 DUP6 AND PUSH1 0x1 PUSH1 0x30 SHL MUL AND PUSH12 0xFFFFFFFFFFFF000000000000 NOT SWAP5 SWAP1 SWAP6 AND PUSH1 0x1 PUSH1 0x20 SHL MUL PUSH6 0xFFFFFFFFFFFF NOT SWAP1 SWAP8 AND SWAP10 SWAP1 SWAP9 AND SWAP9 SWAP1 SWAP9 OR SWAP5 SWAP1 SWAP5 OR AND OR SWAP4 SWAP1 SWAP4 OR SWAP4 SWAP1 SWAP4 AND SWAP3 SWAP1 SWAP3 OR SWAP1 SWAP2 SSTORE MLOAD PUSH1 0x3 SWAP1 PUSH2 0x9F4 SWAP1 DUP5 SWAP1 DUP5 SWAP1 PUSH2 0x10C2 JUMP JUMPDEST SWAP1 DUP2 MSTORE PUSH1 0x40 MLOAD SWAP1 DUP2 SWAP1 SUB PUSH1 0x20 ADD SWAP1 KECCAK256 DUP1 SLOAD SWAP1 PUSH1 0x0 PUSH2 0xA11 DUP4 PUSH2 0x10D2 JUMP JUMPDEST SWAP2 SWAP1 POP SSTORE POP CALLER PUSH1 0x1 PUSH1 0x1 PUSH1 0xA0 SHL SUB AND PUSH32 0xEA277138D5F214F090EE4BCEB0E65496CFD64BA36C38FE6A03DD4A76EDEF9745 DUP4 DUP4 PUSH1 0x40 MLOAD PUSH2 0xA51 SWAP3 SWAP2 SWAP1 PUSH2 0x10EB JUMP JUMPDEST PUSH1 0x40 MLOAD DUP1 SWAP2 SUB SWAP1 LOG2 POP POP JUMP JUMPDEST PUSH1 0x4 SLOAD PUSH1 0x1 PUSH1 0x1 PUSH1 0xA0 SHL SUB AND CALLER EQ PUSH2 0xAA3 JUMPI PUSH1 0x40 MLOAD PUSH3 0x461BCD PUSH1 0xE5 SHL DUP2 MSTORE PUSH1 0x20 PUSH1 0x4 DUP3 ADD MSTORE PUSH1 0x9 PUSH1 0x24 DUP3 ADD MSTORE PUSH9 0x2737BA1037BBB732B9 PUSH1 0xB9 SHL PUSH1 0x44 DUP3 ADD MSTORE PUSH1 0x64 ADD PUSH2 0x6A5 JUMP JUMPDEST PUSH1 0x4 DUP1 SLOAD PUSH1 0x1 PUSH1 0x1 PUSH1 0xA0 SHL SUB NOT AND PUSH1 0x1 PUSH1 0x1 PUSH1 0xA0 SHL SUB SWAP3 SWAP1 SWAP3 AND SWAP2 SWAP1 SWAP2 OR SWAP1 SSTORE JUMP JUMPDEST DUP1 CALLDATALOAD PUSH1 0x1 PUSH1 0x1 PUSH1 0xA0 SHL SUB DUP2 AND DUP2 EQ PUSH2 0xADC JUMPI PUSH1 0x0 DUP1 REVERT JUMPDEST SWAP2 SWAP1 POP JUMP JUMPDEST PUSH1 0x0 PUSH1 0x20 DUP3 DUP5 SUB SLT ISZERO PUSH2 0xAF3 JUMPI PUSH1 0x0 DUP1 REVERT JUMPDEST PUSH2 0xAFC DUP3 PUSH2 0xAC5 JUMP JUMPDEST SWAP4 SWAP3 POP POP POP JUMP JUMPDEST PUSH1 0x0 DUP2 MLOAD DUP1 DUP5 MSTORE PUSH1 0x0 JUMPDEST DUP2 DUP2 LT ISZERO PUSH2 0xB29 JUMPI PUSH1 0x20 DUP2 DUP6 ADD DUP2 ADD MLOAD DUP7 DUP4 ADD DUP3 ADD MSTORE ADD PUSH2 0xB0D JUMP JUMPDEST POP PUSH1 0x0 PUSH1 0x20 DUP3 DUP7 ADD ADD MSTORE PUSH1 0x20 PUSH1 0x1F NOT PUSH1 0x1F DUP4 ADD AND DUP6 ADD ADD SWAP2 POP POP SWAP3 SWAP2 POP POP JUMP JUMPDEST PUSH1 0x20 DUP2 MSTORE PUSH1 0x0 DUP3 MLOAD PUSH1 0xC0 PUSH1 0x20 DUP5 ADD MSTORE PUSH2 0xB65 PUSH1 0xE0 DUP5 ADD DUP3 PUSH2 0xB03 JUMP JUMPDEST SWAP1 POP PUSH1 0x20 DUP5 ADD MLOAD PUSH4 0xFFFFFFFF DUP1 DUP3 AND PUSH1 0x40 DUP7 ADD MSTORE PUSH1 0x40 DUP7 ADD MLOAD SWAP2 POP PUSH2 0xFFFF DUP1 DUP4 AND PUSH1 0x60 DUP8 ADD MSTORE DUP1 PUSH1 0x60 DUP9 ADD MLOAD AND PUSH1 0x80 DUP8 ADD MSTORE POP DUP1 PUSH1 0x80 DUP8 ADD MLOAD AND PUSH1 0xA0 DUP7 ADD MSTORE POP POP PUSH1 0xA0 DUP5 ADD MLOAD ISZERO ISZERO PUSH1 0xC0 DUP5 ADD MSTORE DUP1 SWAP2 POP POP SWAP3 SWAP2 POP POP JUMP JUMPDEST PUSH4 0x4E487B71 PUSH1 0xE0 SHL PUSH1 0x0 MSTORE PUSH1 0x41 PUSH1 0x4 MSTORE PUSH1 0x24 PUSH1 0x0 REVERT JUMPDEST PUSH1 0x0 PUSH1 0x20 DUP3 DUP5 SUB SLT ISZERO PUSH2 0xBE4 JUMPI PUSH1 0x0 DUP1 REVERT JUMPDEST DUP2 CALLDATALOAD PUSH8 0xFFFFFFFFFFFFFFFF DUP1 DUP3 GT ISZERO PUSH2 0xBFC JUMPI PUSH1 0x0 DUP1 REVERT JUMPDEST DUP2 DUP5 ADD SWAP2 POP DUP5 PUSH1 0x1F DUP4 ADD SLT PUSH2 0xC10 JUMPI PUSH1 0x0 DUP1 REVERT JUMPDEST DUP2 CALLDATALOAD DUP2 DUP2 GT ISZERO PUSH2 0xC22 JUMPI PUSH2 0xC22 PUSH2 0xBBC JUMP JUMPDEST PUSH1 0x40 MLOAD PUSH1 0x1F DUP3 ADD PUSH1 0x1F NOT SWAP1 DUP2 AND PUSH1 0x3F ADD AND DUP2 ADD SWAP1 DUP4 DUP3 GT DUP2 DUP4 LT OR ISZERO PUSH2 0xC4A JUMPI PUSH2 0xC4A PUSH2 0xBBC JUMP JUMPDEST DUP2 PUSH1 0x40 MSTORE DUP3 DUP2 MSTORE DUP8 PUSH1 0x20 DUP5 DUP8 ADD ADD GT ISZERO PUSH2 0xC63 JUMPI PUSH1 0x0 DUP1 REVERT JUMPDEST DUP3 PUSH1 0x20 DUP7 ADD PUSH1 0x20 DUP4 ADD CALLDATACOPY PUSH1 0x0 SWAP3 DUP2 ADD PUSH1 0x20 ADD SWAP3 SWAP1 SWAP3 MSTORE POP SWAP6 SWAP5 POP POP POP POP POP JUMP JUMPDEST DUP1 CALLDATALOAD PUSH4 0xFFFFFFFF DUP2 AND DUP2 EQ PUSH2 0xADC JUMPI PUSH1 0x0 DUP1 REVERT JUMPDEST PUSH1 0x0 PUSH1 0x20 DUP3 DUP5 SUB SLT ISZERO PUSH2 0xCA9 JUMPI PUSH1 0x0 DUP1 REVERT JUMPDEST PUSH2 0xAFC DUP3 PUSH2 0xC83 JUMP JUMPDEST PUSH1 0x0 DUP1 DUP4 PUSH1 0x1F DUP5 ADD SLT PUSH2 0xCC4 JUMPI PUSH1 0x0 DUP1 REVERT JUMPDEST POP DUP2 CALLDATALOAD PUSH8 0xFFFFFFFFFFFFFFFF DUP2 GT ISZERO PUSH2 0xCDC JUMPI PUSH1 0x0 DUP1 REVERT JUMPDEST PUSH1 0x20 DUP4 ADD SWAP2 POP DUP4 PUSH1 0x20 DUP3 DUP6 ADD ADD GT ISZERO PUSH2 0xCF4 JUMPI PUSH1 0x0 DUP1 REVERT JUMPDEST SWAP3 POP SWAP3 SWAP1 POP JUMP JUMPDEST PUSH1 0x0 DUP1 PUSH1 0x0 DUP1 PUSH1 0x60 DUP6 DUP8 SUB SLT ISZERO PUSH2 0xD11 JUMPI PUSH1 0x0 DUP1 REVERT JUMPDEST PUSH2 0xD1A DUP6 PUSH2 0xAC5 JUMP JUMPDEST SWAP4 POP PUSH2 0xD28 PUSH1 0x20 DUP7 ADD PUSH2 0xC83 JUMP JUMPDEST SWAP3 POP PUSH1 0x40 DUP6 ADD CALLDATALOAD PUSH8 0xFFFFFFFFFFFFFFFF DUP2 GT ISZERO PUSH2 0xD44 JUMPI PUSH1 0x0 DUP1 REVERT JUMPDEST PUSH2 0xD50 DUP8 DUP3 DUP9 ADD PUSH2 0xCB2 JUMP JUMPDEST SWAP6 SWAP9 SWAP5 SWAP8 POP SWAP6 POP POP POP POP JUMP JUMPDEST PUSH1 0xC0 DUP2 MSTORE PUSH1 0x0 PUSH2 0xD6F PUSH1 0xC0 DUP4 ADD DUP10 PUSH2 0xB03 JUMP JUMPDEST PUSH4 0xFFFFFFFF SWAP8 DUP9 AND PUSH1 0x20 DUP5 ADD MSTORE PUSH2 0xFFFF SWAP7 DUP8 AND PUSH1 0x40 DUP5 ADD MSTORE SWAP5 SWAP1 SWAP6 AND PUSH1 0x60 DUP3 ADD MSTORE SWAP2 SWAP1 SWAP5 AND PUSH1 0x80 DUP3 ADD MSTORE SWAP3 ISZERO ISZERO PUSH1 0xA0 SWAP1 SWAP4 ADD SWAP3 SWAP1 SWAP3 MSTORE POP SWAP2 SWAP1 POP JUMP JUMPDEST PUSH1 0x0 DUP1 PUSH1 0x40 DUP4 DUP6 SUB SLT ISZERO PUSH2 0xDBE JUMPI PUSH1 0x0 DUP1 REVERT JUMPDEST PUSH2 0xDC7 DUP4 PUSH2 0xAC5 JUMP JUMPDEST SWAP2 POP PUSH2 0xDD5 PUSH1 0x20 DUP5 ADD PUSH2 0xC83 JUMP JUMPDEST SWAP1 POP SWAP3 POP SWAP3 SWAP1 POP JUMP JUMPDEST PUSH1 0x0 DUP1 PUSH1 0x20 DUP4 DUP6 SUB SLT ISZERO PUSH2 0xDF1 JUMPI PUSH1 0x0 DUP1 REVERT JUMPDEST DUP3 CALLDATALOAD PUSH8 0xFFFFFFFFFFFFFFFF DUP2 GT ISZERO PUSH2 0xE08 JUMPI PUSH1 0x0 DUP1 REVERT JUMPDEST PUSH2 0xE14 DUP6 DUP3 DUP7 ADD PUSH2 0xCB2 JUMP JUMPDEST SWAP1 SWAP7 SWAP1 SWAP6 POP SWAP4 POP POP POP POP JUMP JUMPDEST PUSH1 0x1 DUP2 DUP2 SHR SWAP1 DUP3 AND DUP1 PUSH2 0xE34 JUMPI PUSH1 0x7F DUP3 AND SWAP2 POP JUMPDEST PUSH1 0x20 DUP3 LT DUP2 SUB PUSH2 0xE54 JUMPI PUSH4 0x4E487B71 PUSH1 0xE0 SHL PUSH1 0x0 MSTORE PUSH1 0x22 PUSH1 0x4 MSTORE PUSH1 0x24 PUSH1 0x0 REVERT JUMPDEST POP SWAP2 SWAP1 POP JUMP JUMPDEST PUSH4 0x4E487B71 PUSH1 0xE0 SHL PUSH1 0x0 MSTORE PUSH1 0x11 PUSH1 0x4 MSTORE PUSH1 0x24 PUSH1 0x0 REVERT JUMPDEST PUSH4 0xFFFFFFFF DUP3 DUP2 AND DUP3 DUP3 AND SUB SWAP1 DUP1 DUP3 GT ISZERO PUSH2 0xE8D JUMPI PUSH2 0xE8D PUSH2 0xE5A JUMP JUMPDEST POP SWAP3 SWAP2 POP POP JUMP JUMPDEST PUSH1 0x0 PUSH2 0xFFFF DUP1 DUP4 AND DUP2 DUP2 SUB PUSH2 0xEAB JUMPI PUSH2 0xEAB PUSH2 0xE5A JUMP JUMPDEST PUSH1 0x1 ADD SWAP4 SWAP3 POP POP POP JUMP JUMPDEST PUSH4 0xFFFFFFFF DUP2 DUP2 AND DUP4 DUP3 AND ADD SWAP1 DUP1 DUP3 GT ISZERO PUSH2 0xE8D JUMPI PUSH2 0xE8D PUSH2 0xE5A JUMP JUMPDEST PUSH1 0x0 DUP1 DUP4 SLOAD PUSH2 0xEE0 DUP2 PUSH2 0xE20 JUMP JUMPDEST PUSH1 0x1 DUP3 DUP2 AND DUP1 ISZERO PUSH2 0xEF8 JUMPI PUSH1 0x1 DUP2 EQ PUSH2 0xF0D JUMPI PUSH2 0xF3C JUMP JUMPDEST PUSH1 0xFF NOT DUP5 AND DUP8 MSTORE DUP3 ISZERO ISZERO DUP4 MUL DUP8 ADD SWAP5 POP PUSH2 0xF3C JUMP JUMPDEST DUP8 PUSH1 0x0 MSTORE PUSH1 0x20 DUP1 PUSH1 0x0 KECCAK256 PUSH1 0x0 JUMPDEST DUP6 DUP2 LT ISZERO PUSH2 0xF33 JUMPI DUP2 SLOAD DUP11 DUP3 ADD MSTORE SWAP1 DUP5 ADD SWAP1 DUP3 ADD PUSH2 0xF1A JUMP JUMPDEST POP POP POP DUP3 DUP8 ADD SWAP5 POP JUMPDEST POP SWAP3 SWAP7 SWAP6 POP POP POP POP POP POP JUMP JUMPDEST DUP1 DUP3 ADD DUP1 DUP3 GT ISZERO PUSH2 0xF5B JUMPI PUSH2 0xF5B PUSH2 0xE5A JUMP JUMPDEST SWAP3 SWAP2 POP POP JUMP JUMPDEST DUP2 DUP4 MSTORE DUP2 DUP2 PUSH1 0x20 DUP6 ADD CALLDATACOPY POP PUSH1 0x0 DUP3 DUP3 ADD PUSH1 0x20 SWAP1 DUP2 ADD SWAP2 SWAP1 SWAP2 MSTORE PUSH1 0x1F SWAP1 SWAP2 ADD PUSH1 0x1F NOT AND SWAP1 SWAP2 ADD ADD SWAP1 JUMP JUMPDEST PUSH4 0xFFFFFFFF DUP5 AND DUP2 MSTORE PUSH1 0x40 PUSH1 0x20 DUP3 ADD MSTORE PUSH1 0x0 PUSH2 0xFAA PUSH1 0x40 DUP4 ADD DUP5 DUP7 PUSH2 0xF61 JUMP JUMPDEST SWAP6 SWAP5 POP POP POP POP POP JUMP JUMPDEST PUSH1 0x1F DUP3 GT ISZERO PUSH2 0xFFD JUMPI PUSH1 0x0 DUP2 DUP2 MSTORE PUSH1 0x20 DUP2 KECCAK256 PUSH1 0x1F DUP6 ADD PUSH1 0x5 SHR DUP2 ADD PUSH1 0x20 DUP7 LT ISZERO PUSH2 0xFDA JUMPI POP DUP1 JUMPDEST PUSH1 0x1F DUP6 ADD PUSH1 0x5 SHR DUP3 ADD SWAP2 POP JUMPDEST DUP2 DUP2 LT ISZERO PUSH2 0xFF9 JUMPI DUP3 DUP2 SSTORE PUSH1 0x1 ADD PUSH2 0xFE6 JUMP JUMPDEST POP POP POP JUMPDEST POP POP POP JUMP JUMPDEST DUP2 MLOAD PUSH8 0xFFFFFFFFFFFFFFFF DUP2 GT ISZERO PUSH2 0x101C JUMPI PUSH2 0x101C PUSH2 0xBBC JUMP JUMPDEST PUSH2 0x1030 DUP2 PUSH2 0x102A DUP5 SLOAD PUSH2 0xE20 JUMP JUMPDEST DUP5 PUSH2 0xFB3 JUMP JUMPDEST PUSH1 0x20 DUP1 PUSH1 0x1F DUP4 GT PUSH1 0x1 DUP2 EQ PUSH2 0x1065 JUMPI PUSH1 0x0 DUP5 ISZERO PUSH2 0x104D JUMPI POP DUP6 DUP4 ADD MLOAD JUMPDEST PUSH1 0x0 NOT PUSH1 0x3 DUP7 SWAP1 SHL SHR NOT AND PUSH1 0x1 DUP6 SWAP1 SHL OR DUP6 SSTORE PUSH2 0xFF9 JUMP JUMPDEST PUSH1 0x0 DUP6 DUP2 MSTORE PUSH1 0x20 DUP2 KECCAK256 PUSH1 0x1F NOT DUP7 AND SWAP2 JUMPDEST DUP3 DUP2 LT ISZERO PUSH2 0x1094 JUMPI DUP9 DUP7 ADD MLOAD DUP3 SSTORE SWAP5 DUP5 ADD SWAP5 PUSH1 0x1 SWAP1 SWAP2 ADD SWAP1 DUP5 ADD PUSH2 0x1075 JUMP JUMPDEST POP DUP6 DUP3 LT ISZERO PUSH2 0x10B2 JUMPI DUP8 DUP6 ADD MLOAD PUSH1 0x0 NOT PUSH1 0x3 DUP9 SWAP1 SHL PUSH1 0xF8 AND SHR NOT AND DUP2 SSTORE JUMPDEST POP POP POP POP POP PUSH1 0x1 SWAP1 DUP2 SHL ADD SWAP1 SSTORE POP JUMP JUMPDEST DUP2 DUP4 DUP3 CALLDATACOPY PUSH1 0x0 SWAP2 ADD SWAP1 DUP2 MSTORE SWAP2 SWAP1 POP JUMP JUMPDEST PUSH1 0x0 PUSH1 0x1 DUP3 ADD PUSH2 0x10E4 JUMPI PUSH2 0x10E4 PUSH2 0xE5A JUMP JUMPDEST POP PUSH1 0x1 ADD SWAP1 JUMP JUMPDEST PUSH1 0x20 DUP2 MSTORE PUSH1 0x0 PUSH2 0x10FF PUSH1 0x20 DUP4 ADD DUP5 DUP7 PUSH2 0xF61 JUMP JUMPDEST SWAP5 SWAP4 POP POP POP POP JUMP INVALID LOG2 PUSH5 0x6970667358 0x22 SLT KECCAK256 0x2B GT 0x21 0x5C SWAP7 0x2E DELEGATECALL 0x24 SHR CHAINID DUP7 0xB2 DUP5 MSTORE 0x2F 0xD7 0xE6 PUSH0 0xD0 0xF7 EXTCODECOPY SWAP14 0xE8 0xE9 BLOCKHASH KECCAK256 PUSH30 0x24808B4CE864736F6C634300081400330000000000000000000000000000 "},"methodIdentifiers":{"CHECKIN_POINTS()":"e7534354","awardPoints(address,uint32,string)":"79e463a9","checkIn(uint32)":"30ea198a","countryFanCount(string)":"171347d7","countryPoints(string)":"30f4df65","getProfile(address)":"0f53a470","hasCheckedIn(address,uint32)":"c2dfec87","isRegistered(address)":"c3c5a547","owner()":"8da5cb5b","profiles(address)":"bbe15627","registerFan(string)":"d5eb8929","transferOwnership(address)":"f2fde38b"}}}}}